{
  "_format": "hh-sol-artifact-1",
  "contractName": "NoahERC721",
  "sourceName": "contracts/NoahERC721.sol",
  "abi": [
    {
      "inputs": [],
      "stateMutability": "nonpayable",
      "type": "constructor"
    },
    {
      "anonymous": false,
      "inputs": [
        {
          "indexed": true,
          "internalType": "address",
          "name": "owner",
          "type": "address"
        },
        {
          "indexed": true,
          "internalType": "address",
          "name": "approved",
          "type": "address"
        },
        {
          "indexed": true,
          "internalType": "uint256",
          "name": "tokenId",
          "type": "uint256"
        }
      ],
      "name": "Approval",
      "type": "event"
    },
    {
      "anonymous": false,
      "inputs": [
        {
          "indexed": true,
          "internalType": "address",
          "name": "owner",
          "type": "address"
        },
        {
          "indexed": true,
          "internalType": "address",
          "name": "operator",
          "type": "address"
        },
        {
          "indexed": false,
          "internalType": "bool",
          "name": "approved",
          "type": "bool"
        }
      ],
      "name": "ApprovalForAll",
      "type": "event"
    },
    {
      "anonymous": false,
      "inputs": [
        {
          "indexed": true,
          "internalType": "address",
          "name": "from",
          "type": "address"
        },
        {
          "indexed": true,
          "internalType": "address",
          "name": "to",
          "type": "address"
        },
        {
          "indexed": true,
          "internalType": "uint256",
          "name": "tokenId",
          "type": "uint256"
        }
      ],
      "name": "Transfer",
      "type": "event"
    },
    {
      "inputs": [
        {
          "internalType": "address",
          "name": "to",
          "type": "address"
        },
        {
          "internalType": "uint256",
          "name": "tokenId",
          "type": "uint256"
        }
      ],
      "name": "approve",
      "outputs": [],
      "stateMutability": "nonpayable",
      "type": "function"
    },
    {
      "inputs": [
        {
          "internalType": "address",
          "name": "owner",
          "type": "address"
        }
      ],
      "name": "balanceOf",
      "outputs": [
        {
          "internalType": "uint256",
          "name": "",
          "type": "uint256"
        }
      ],
      "stateMutability": "view",
      "type": "function"
    },
    {
      "inputs": [
        {
          "internalType": "uint256",
          "name": "tokenId",
          "type": "uint256"
        }
      ],
      "name": "getApproved",
      "outputs": [
        {
          "internalType": "address",
          "name": "",
          "type": "address"
        }
      ],
      "stateMutability": "view",
      "type": "function"
    },
    {
      "inputs": [
        {
          "internalType": "address",
          "name": "owner",
          "type": "address"
        },
        {
          "internalType": "address",
          "name": "operator",
          "type": "address"
        }
      ],
      "name": "isApprovedForAll",
      "outputs": [
        {
          "internalType": "bool",
          "name": "",
          "type": "bool"
        }
      ],
      "stateMutability": "view",
      "type": "function"
    },
    {
      "inputs": [],
      "name": "name",
      "outputs": [
        {
          "internalType": "string",
          "name": "",
          "type": "string"
        }
      ],
      "stateMutability": "view",
      "type": "function"
    },
    {
      "inputs": [
        {
          "internalType": "address",
          "name": "account",
          "type": "address"
        }
      ],
      "name": "noah_balanceOf",
      "outputs": [
        {
          "internalType": "uint256",
          "name": "",
          "type": "uint256"
        }
      ],
      "stateMutability": "view",
      "type": "function"
    },
    {
      "inputs": [
        {
          "internalType": "address",
          "name": "from",
          "type": "address"
        },
        {
          "internalType": "address",
          "name": "to",
          "type": "address"
        },
        {
          "internalType": "uint256",
          "name": "tokenId",
          "type": "uint256"
        }
      ],
      "name": "noah_safeTransferFrom",
      "outputs": [],
      "stateMutability": "nonpayable",
      "type": "function"
    },
    {
      "inputs": [
        {
          "internalType": "address",
          "name": "operator",
          "type": "address"
        },
        {
          "internalType": "bool",
          "name": "approved",
          "type": "bool"
        }
      ],
      "name": "noah_setApprovalForAll",
      "outputs": [],
      "stateMutability": "nonpayable",
      "type": "function"
    },
    {
      "inputs": [],
      "name": "owner",
      "outputs": [
        {
          "internalType": "address",
          "name": "",
          "type": "address"
        }
      ],
      "stateMutability": "view",
      "type": "function"
    },
    {
      "inputs": [
        {
          "internalType": "uint256",
          "name": "tokenId",
          "type": "uint256"
        }
      ],
      "name": "ownerOf",
      "outputs": [
        {
          "internalType": "address",
          "name": "",
          "type": "address"
        }
      ],
      "stateMutability": "view",
      "type": "function"
    },
    {
      "inputs": [
        {
          "internalType": "address",
          "name": "from",
          "type": "address"
        },
        {
          "internalType": "address",
          "name": "to",
          "type": "address"
        },
        {
          "internalType": "uint256",
          "name": "tokenId",
          "type": "uint256"
        }
      ],
      "name": "safeTransferFrom",
      "outputs": [],
      "stateMutability": "nonpayable",
      "type": "function"
    },
    {
      "inputs": [
        {
          "internalType": "address",
          "name": "from",
          "type": "address"
        },
        {
          "internalType": "address",
          "name": "to",
          "type": "address"
        },
        {
          "internalType": "uint256",
          "name": "tokenId",
          "type": "uint256"
        },
        {
          "internalType": "bytes",
          "name": "_data",
          "type": "bytes"
        }
      ],
      "name": "safeTransferFrom",
      "outputs": [],
      "stateMutability": "nonpayable",
      "type": "function"
    },
    {
      "inputs": [
        {
          "internalType": "address",
          "name": "operator",
          "type": "address"
        },
        {
          "internalType": "bool",
          "name": "approved",
          "type": "bool"
        }
      ],
      "name": "setApprovalForAll",
      "outputs": [],
      "stateMutability": "nonpayable",
      "type": "function"
    },
    {
      "inputs": [
        {
          "internalType": "bytes4",
          "name": "interfaceId",
          "type": "bytes4"
        }
      ],
      "name": "supportsInterface",
      "outputs": [
        {
          "internalType": "bool",
          "name": "",
          "type": "bool"
        }
      ],
      "stateMutability": "view",
      "type": "function"
    },
    {
      "inputs": [],
      "name": "symbol",
      "outputs": [
        {
          "internalType": "string",
          "name": "",
          "type": "string"
        }
      ],
      "stateMutability": "view",
      "type": "function"
    },
    {
      "inputs": [
        {
          "internalType": "uint256",
          "name": "index",
          "type": "uint256"
        }
      ],
      "name": "tokenByIndex",
      "outputs": [
        {
          "internalType": "uint256",
          "name": "",
          "type": "uint256"
        }
      ],
      "stateMutability": "view",
      "type": "function"
    },
    {
      "inputs": [
        {
          "internalType": "address",
          "name": "owner",
          "type": "address"
        },
        {
          "internalType": "uint256",
          "name": "index",
          "type": "uint256"
        }
      ],
      "name": "tokenOfOwnerByIndex",
      "outputs": [
        {
          "internalType": "uint256",
          "name": "",
          "type": "uint256"
        }
      ],
      "stateMutability": "view",
      "type": "function"
    },
    {
      "inputs": [
        {
          "internalType": "uint256",
          "name": "tokenId",
          "type": "uint256"
        }
      ],
      "name": "tokenURI",
      "outputs": [
        {
          "internalType": "string",
          "name": "",
          "type": "string"
        }
      ],
      "stateMutability": "view",
      "type": "function"
    },
    {
      "inputs": [],
      "name": "totalSupply",
      "outputs": [
        {
          "internalType": "uint256",
          "name": "",
          "type": "uint256"
        }
      ],
      "stateMutability": "view",
      "type": "function"
    },
    {
      "inputs": [
        {
          "internalType": "address",
          "name": "from",
          "type": "address"
        },
        {
          "internalType": "address",
          "name": "to",
          "type": "address"
        },
        {
          "internalType": "uint256",
          "name": "tokenId",
          "type": "uint256"
        }
      ],
      "name": "transferFrom",
      "outputs": [],
      "stateMutability": "nonpayable",
      "type": "function"
    }
  ],
  "bytecode": "0x60806040526040518060400160405280600a81526020017f4e6f616845524337323100000000000000000000000000000000000000000000815250600a90805190602001906200005192919062000cbe565b506040518060400160405280600581526020017f4e45373231000000000000000000000000000000000000000000000000000000815250600b90805190602001906200009f92919062000cbe565b50348015620000ad57600080fd5b50600a8054620000bd90620011a9565b80601f0160208091040260200160405190810160405280929190818152602001828054620000eb90620011a9565b80156200013c5780601f1062000110576101008083540402835291602001916200013c565b820191906000526020600020905b8154815290600101906020018083116200011e57829003601f168201915b5050505050600b80546200015090620011a9565b80601f01602080910402602001604051908101604052809291908181526020018280546200017e90620011a9565b8015620001cf5780601f10620001a357610100808354040283529160200191620001cf565b820191906000526020600020905b815481529060010190602001808311620001b157829003601f168201915b50505050508160009080519060200190620001ec92919062000cbe565b5080600190805190602001906200020592919062000cbe565b5050506200021b3360016200026260201b60201c565b33600c60006101000a81548173ffffffffffffffffffffffffffffffffffffffff021916908373ffffffffffffffffffffffffffffffffffffffff16021790555062001268565b620002848282604051806020016040528060008152506200028860201b60201c565b5050565b6200029a8383620002f660201b60201c565b620002af6000848484620004dc60201b60201c565b620002f1576040517f08c379a0000000000000000000000000000000000000000000000000000000008152600401620002e89062000fbc565b60405180910390fd5b505050565b600073ffffffffffffffffffffffffffffffffffffffff168273ffffffffffffffffffffffffffffffffffffffff16141562000369576040517f08c379a0000000000000000000000000000000000000000000000000000000008152600401620003609062001022565b60405180910390fd5b6200037a816200069660201b60201c565b15620003bd576040517f08c379a0000000000000000000000000000000000000000000000000000000008152600401620003b49062000fde565b60405180910390fd5b620003d1600083836200070260201b60201c565b6001600360008473ffffffffffffffffffffffffffffffffffffffff1673ffffffffffffffffffffffffffffffffffffffff168152602001908152602001600020600082825462000423919062001071565b92505081905550816002600083815260200190815260200160002060006101000a81548173ffffffffffffffffffffffffffffffffffffffff021916908373ffffffffffffffffffffffffffffffffffffffff160217905550808273ffffffffffffffffffffffffffffffffffffffff16600073ffffffffffffffffffffffffffffffffffffffff167fddf252ad1be2c89b69c2b068fc378daa952ba7f163c4a11628f55a4df523b3ef60405160405180910390a45050565b60006200050a8473ffffffffffffffffffffffffffffffffffffffff166200084960201b62000c941760201c565b1562000689578373ffffffffffffffffffffffffffffffffffffffff1663150b7a026200053c6200085c60201b60201c565b8786866040518563ffffffff1660e01b815260040162000560949392919062000f68565b602060405180830381600087803b1580156200057b57600080fd5b505af1925050508015620005af57506040513d601f19601f82011682018060405250810190620005ac919062000d85565b60015b62000638573d8060008114620005e2576040519150601f19603f3d011682016040523d82523d6000602084013e620005e7565b606091505b5060008151141562000630576040517f08c379a0000000000000000000000000000000000000000000000000000000008152600401620006279062000fbc565b60405180910390fd5b805181602001fd5b63150b7a0260e01b7bffffffffffffffffffffffffffffffffffffffffffffffffffffffff1916817bffffffffffffffffffffffffffffffffffffffffffffffffffffffff1916149150506200068e565b600190505b949350505050565b60008073ffffffffffffffffffffffffffffffffffffffff166002600084815260200190815260200160002060009054906101000a900473ffffffffffffffffffffffffffffffffffffffff1673ffffffffffffffffffffffffffffffffffffffff1614159050919050565b6200071a8383836200086460201b62000ca71760201c565b600073ffffffffffffffffffffffffffffffffffffffff168373ffffffffffffffffffffffffffffffffffffffff161415620007675762000761816200086960201b60201c565b620007af565b8173ffffffffffffffffffffffffffffffffffffffff168373ffffffffffffffffffffffffffffffffffffffff1614620007ae57620007ad8382620008b260201b60201c565b5b5b600073ffffffffffffffffffffffffffffffffffffffff168273ffffffffffffffffffffffffffffffffffffffff161415620007fc57620007f68162000a2f60201b60201c565b62000844565b8273ffffffffffffffffffffffffffffffffffffffff168273ffffffffffffffffffffffffffffffffffffffff1614620008435762000842828262000b7760201b60201c565b5b5b505050565b600080823b905060008111915050919050565b600033905090565b505050565b6008805490506009600083815260200190815260200160002081905550600881908060018154018082558091505060019003906000526020600020016000909190919091505550565b60006001620008cc8462000c0360201b620009411760201c565b620008d89190620010ce565b9050600060076000848152602001908152602001600020549050818114620009be576000600660008673ffffffffffffffffffffffffffffffffffffffff1673ffffffffffffffffffffffffffffffffffffffff168152602001908152602001600020600084815260200190815260200160002054905080600660008773ffffffffffffffffffffffffffffffffffffffff1673ffffffffffffffffffffffffffffffffffffffff168152602001908152602001600020600084815260200190815260200160002081905550816007600083815260200190815260200160002081905550505b6007600084815260200190815260200160002060009055600660008573ffffffffffffffffffffffffffffffffffffffff1673ffffffffffffffffffffffffffffffffffffffff16815260200190815260200160002060008381526020019081526020016000206000905550505050565b6000600160088054905062000a459190620010ce565b905060006009600084815260200190815260200160002054905060006008838154811062000a9c577f4e487b7100000000000000000000000000000000000000000000000000000000600052603260045260246000fd5b90600052602060002001549050806008838154811062000ae5577f4e487b7100000000000000000000000000000000000000000000000000000000600052603260045260246000fd5b90600052602060002001819055508160096000838152602001908152602001600020819055506009600085815260200190815260200160002060009055600880548062000b5b577f4e487b7100000000000000000000000000000000000000000000000000000000600052603160045260246000fd5b6001900381819060005260206000200160009055905550505050565b600062000b8f8362000c0360201b620009411760201c565b905081600660008573ffffffffffffffffffffffffffffffffffffffff1673ffffffffffffffffffffffffffffffffffffffff168152602001908152602001600020600083815260200190815260200160002081905550806007600084815260200190815260200160002081905550505050565b60008073ffffffffffffffffffffffffffffffffffffffff168273ffffffffffffffffffffffffffffffffffffffff16141562000c77576040517f08c379a000000000000000000000000000000000000000000000000000000000815260040162000c6e9062001000565b60405180910390fd5b600360008373ffffffffffffffffffffffffffffffffffffffff1673ffffffffffffffffffffffffffffffffffffffff168152602001908152602001600020549050919050565b82805462000ccc90620011a9565b90600052602060002090601f01602090048101928262000cf0576000855562000d3c565b82601f1062000d0b57805160ff191683800117855562000d3c565b8280016001018555821562000d3c579182015b8281111562000d3b57825182559160200191906001019062000d1e565b5b50905062000d4b919062000d4f565b5090565b5b8082111562000d6a57600081600090555060010162000d50565b5090565b60008151905062000d7f816200124e565b92915050565b60006020828403121562000d9857600080fd5b600062000da88482850162000d6e565b91505092915050565b62000dbc8162001109565b82525050565b600062000dcf8262001044565b62000ddb81856200104f565b935062000ded81856020860162001173565b62000df8816200123d565b840191505092915050565b600062000e1260328362001060565b91507f4552433732313a207472616e7366657220746f206e6f6e20455243373231526560008301527f63656976657220696d706c656d656e74657200000000000000000000000000006020830152604082019050919050565b600062000e7a601c8362001060565b91507f4552433732313a20746f6b656e20616c7265616479206d696e746564000000006000830152602082019050919050565b600062000ebc602a8362001060565b91507f4552433732313a2062616c616e636520717565727920666f7220746865207a6560008301527f726f2061646472657373000000000000000000000000000000000000000000006020830152604082019050919050565b600062000f2460208362001060565b91507f4552433732313a206d696e7420746f20746865207a65726f20616464726573736000830152602082019050919050565b62000f628162001169565b82525050565b600060808201905062000f7f600083018762000db1565b62000f8e602083018662000db1565b62000f9d604083018562000f57565b818103606083015262000fb1818462000dc2565b905095945050505050565b6000602082019050818103600083015262000fd78162000e03565b9050919050565b6000602082019050818103600083015262000ff98162000e6b565b9050919050565b600060208201905081810360008301526200101b8162000ead565b9050919050565b600060208201905081810360008301526200103d8162000f15565b9050919050565b600081519050919050565b600082825260208201905092915050565b600082825260208201905092915050565b60006200107e8262001169565b91506200108b8362001169565b9250827fffffffffffffffffffffffffffffffffffffffffffffffffffffffffffffffff03821115620010c357620010c2620011df565b5b828201905092915050565b6000620010db8262001169565b9150620010e88362001169565b925082821015620010fe57620010fd620011df565b5b828203905092915050565b6000620011168262001149565b9050919050565b60007fffffffff0000000000000000000000000000000000000000000000000000000082169050919050565b600073ffffffffffffffffffffffffffffffffffffffff82169050919050565b6000819050919050565b60005b838110156200119357808201518184015260208101905062001176565b83811115620011a3576000848401525b50505050565b60006002820490506001821680620011c257607f821691505b60208210811415620011d957620011d86200120e565b5b50919050565b7f4e487b7100000000000000000000000000000000000000000000000000000000600052601160045260246000fd5b7f4e487b7100000000000000000000000000000000000000000000000000000000600052602260045260246000fd5b6000601f19601f8301169050919050565b62001259816200111d565b81146200126557600080fd5b50565b612c0380620012786000396000f3fe608060405234801561001057600080fd5b506004361061012c5760003560e01c806370a08231116100ad578063a22cb46511610071578063a22cb46514610355578063a860966f14610371578063b88d4fde146103a1578063c87b56dd146103bd578063e985e9c5146103ed5761012c565b806370a08231146102b15780638484b4e0146102e15780638da5cb5b146102fd5780639596157e1461031b57806395d89b41146103375761012c565b806323b872dd116100f457806323b872dd146101e95780632f745c591461020557806342842e0e146102355780634f6ccce7146102515780636352211e146102815761012c565b806301ffc9a71461013157806306fdde0314610161578063081812fc1461017f578063095ea7b3146101af57806318160ddd146101cb575b600080fd5b61014b60048036038101906101469190611e87565b61041d565b60405161015891906125cb565b60405180910390f35b610169610497565b60405161017691906125e6565b60405180910390f35b61019960048036038101906101949190611ed9565b610529565b6040516101a69190612564565b60405180910390f35b6101c960048036038101906101c49190611e4b565b6105ae565b005b6101d36106c6565b6040516101e091906127c8565b60405180910390f35b61020360048036038101906101fe9190611d45565b6106d3565b005b61021f600480360381019061021a9190611e4b565b610733565b60405161022c91906127c8565b60405180910390f35b61024f600480360381019061024a9190611d45565b6107d8565b005b61026b60048036038101906102669190611ed9565b6107f8565b60405161027891906127c8565b60405180910390f35b61029b60048036038101906102969190611ed9565b61088f565b6040516102a89190612564565b60405180910390f35b6102cb60048036038101906102c69190611ce0565b610941565b6040516102d891906127c8565b60405180910390f35b6102fb60048036038101906102f69190611d45565b6109f9565b005b610305610a09565b6040516103129190612564565b60405180910390f35b61033560048036038101906103309190611e0f565b610a2f565b005b61033f610a3d565b60405161034c91906125e6565b60405180910390f35b61036f600480360381019061036a9190611e0f565b610acf565b005b61038b60048036038101906103869190611ce0565b610ae5565b60405161039891906127c8565b60405180910390f35b6103bb60048036038101906103b69190611d94565b610af7565b005b6103d760048036038101906103d29190611ed9565b610b59565b6040516103e491906125e6565b60405180910390f35b61040760048036038101906104029190611d09565b610c00565b60405161041491906125cb565b60405180910390f35b60007f780e9d63000000000000000000000000000000000000000000000000000000007bffffffffffffffffffffffffffffffffffffffffffffffffffffffff1916827bffffffffffffffffffffffffffffffffffffffffffffffffffffffff19161480610490575061048f82610cac565b5b9050919050565b6060600080546104a6906129f8565b80601f01602080910402602001604051908101604052809291908181526020018280546104d2906129f8565b801561051f5780601f106104f45761010080835404028352916020019161051f565b820191906000526020600020905b81548152906001019060200180831161050257829003601f168201915b5050505050905090565b600061053482610d8e565b610573576040517f08c379a000000000000000000000000000000000000000000000000000000000815260040161056a90612708565b60405180910390fd5b6004600083815260200190815260200160002060009054906101000a900473ffffffffffffffffffffffffffffffffffffffff169050919050565b60006105b98261088f565b90508073ffffffffffffffffffffffffffffffffffffffff168373ffffffffffffffffffffffffffffffffffffffff16141561062a576040517f08c379a000000000000000000000000000000000000000000000000000000000815260040161062190612768565b60405180910390fd5b8073ffffffffffffffffffffffffffffffffffffffff16610649610dfa565b73ffffffffffffffffffffffffffffffffffffffff161480610678575061067781610672610dfa565b610c00565b5b6106b7576040517f08c379a00000000000000000000000000000000000000000000000000000000081526004016106ae906126a8565b60405180910390fd5b6106c18383610e02565b505050565b6000600880549050905090565b6106e46106de610dfa565b82610ebb565b610723576040517f08c379a000000000000000000000000000000000000000000000000000000000815260040161071a90612788565b60405180910390fd5b61072e838383610f99565b505050565b600061073e83610941565b821061077f576040517f08c379a000000000000000000000000000000000000000000000000000000000815260040161077690612608565b60405180910390fd5b600660008473ffffffffffffffffffffffffffffffffffffffff1673ffffffffffffffffffffffffffffffffffffffff168152602001908152602001600020600083815260200190815260200160002054905092915050565b6107f383838360405180602001604052806000815250610af7565b505050565b60006108026106c6565b8210610843576040517f08c379a000000000000000000000000000000000000000000000000000000000815260040161083a906127a8565b60405180910390fd5b6008828154811061087d577f4e487b7100000000000000000000000000000000000000000000000000000000600052603260045260246000fd5b90600052602060002001549050919050565b6000806002600084815260200190815260200160002060009054906101000a900473ffffffffffffffffffffffffffffffffffffffff169050600073ffffffffffffffffffffffffffffffffffffffff168173ffffffffffffffffffffffffffffffffffffffff161415610938576040517f08c379a000000000000000000000000000000000000000000000000000000000815260040161092f906126e8565b60405180910390fd5b80915050919050565b60008073ffffffffffffffffffffffffffffffffffffffff168273ffffffffffffffffffffffffffffffffffffffff1614156109b2576040517f08c379a00000000000000000000000000000000000000000000000000000000081526004016109a9906126c8565b60405180910390fd5b600360008373ffffffffffffffffffffffffffffffffffffffff1673ffffffffffffffffffffffffffffffffffffffff168152602001908152602001600020549050919050565b610a048383836107d8565b505050565b600c60009054906101000a900473ffffffffffffffffffffffffffffffffffffffff1681565b610a398282610acf565b5050565b606060018054610a4c906129f8565b80601f0160208091040260200160405190810160405280929190818152602001828054610a78906129f8565b8015610ac55780601f10610a9a57610100808354040283529160200191610ac5565b820191906000526020600020905b815481529060010190602001808311610aa857829003601f168201915b5050505050905090565b610ae1610ada610dfa565b83836111f5565b5050565b6000610af082610941565b9050919050565b610b08610b02610dfa565b83610ebb565b610b47576040517f08c379a0000000000000000000000000000000000000000000000000000000008152600401610b3e90612788565b60405180910390fd5b610b5384848484611362565b50505050565b6060610b6482610d8e565b610ba3576040517f08c379a0000000000000000000000000000000000000000000000000000000008152600401610b9a90612748565b60405180910390fd5b6000610bad6113be565b90506000815111610bcd5760405180602001604052806000815250610bf8565b80610bd7846113d5565b604051602001610be8929190612540565b6040516020818303038152906040525b915050919050565b6000600560008473ffffffffffffffffffffffffffffffffffffffff1673ffffffffffffffffffffffffffffffffffffffff16815260200190815260200160002060008373ffffffffffffffffffffffffffffffffffffffff1673ffffffffffffffffffffffffffffffffffffffff16815260200190815260200160002060009054906101000a900460ff16905092915050565b600080823b905060008111915050919050565b505050565b60007f80ac58cd000000000000000000000000000000000000000000000000000000007bffffffffffffffffffffffffffffffffffffffffffffffffffffffff1916827bffffffffffffffffffffffffffffffffffffffffffffffffffffffff19161480610d7757507f5b5e139f000000000000000000000000000000000000000000000000000000007bffffffffffffffffffffffffffffffffffffffffffffffffffffffff1916827bffffffffffffffffffffffffffffffffffffffffffffffffffffffff1916145b80610d875750610d8682611582565b5b9050919050565b60008073ffffffffffffffffffffffffffffffffffffffff166002600084815260200190815260200160002060009054906101000a900473ffffffffffffffffffffffffffffffffffffffff1673ffffffffffffffffffffffffffffffffffffffff1614159050919050565b600033905090565b816004600083815260200190815260200160002060006101000a81548173ffffffffffffffffffffffffffffffffffffffff021916908373ffffffffffffffffffffffffffffffffffffffff160217905550808273ffffffffffffffffffffffffffffffffffffffff16610e758361088f565b73ffffffffffffffffffffffffffffffffffffffff167f8c5be1e5ebec7d5bd14f71427d1e84f3dd0314c0f7b2291e5b200ac8c7c3b92560405160405180910390a45050565b6000610ec682610d8e565b610f05576040517f08c379a0000000000000000000000000000000000000000000000000000000008152600401610efc90612688565b60405180910390fd5b6000610f108361088f565b90508073ffffffffffffffffffffffffffffffffffffffff168473ffffffffffffffffffffffffffffffffffffffff161480610f7f57508373ffffffffffffffffffffffffffffffffffffffff16610f6784610529565b73ffffffffffffffffffffffffffffffffffffffff16145b80610f905750610f8f8185610c00565b5b91505092915050565b8273ffffffffffffffffffffffffffffffffffffffff16610fb98261088f565b73ffffffffffffffffffffffffffffffffffffffff161461100f576040517f08c379a000000000000000000000000000000000000000000000000000000000815260040161100690612728565b60405180910390fd5b600073ffffffffffffffffffffffffffffffffffffffff168273ffffffffffffffffffffffffffffffffffffffff16141561107f576040517f08c379a000000000000000000000000000000000000000000000000000000000815260040161107690612648565b60405180910390fd5b61108a8383836115ec565b611095600082610e02565b6001600360008573ffffffffffffffffffffffffffffffffffffffff1673ffffffffffffffffffffffffffffffffffffffff16815260200190815260200160002060008282546110e5919061290e565b925050819055506001600360008473ffffffffffffffffffffffffffffffffffffffff1673ffffffffffffffffffffffffffffffffffffffff168152602001908152602001600020600082825461113c9190612887565b92505081905550816002600083815260200190815260200160002060006101000a81548173ffffffffffffffffffffffffffffffffffffffff021916908373ffffffffffffffffffffffffffffffffffffffff160217905550808273ffffffffffffffffffffffffffffffffffffffff168473ffffffffffffffffffffffffffffffffffffffff167fddf252ad1be2c89b69c2b068fc378daa952ba7f163c4a11628f55a4df523b3ef60405160405180910390a4505050565b8173ffffffffffffffffffffffffffffffffffffffff168373ffffffffffffffffffffffffffffffffffffffff161415611264576040517f08c379a000000000000000000000000000000000000000000000000000000000815260040161125b90612668565b60405180910390fd5b80600560008573ffffffffffffffffffffffffffffffffffffffff1673ffffffffffffffffffffffffffffffffffffffff16815260200190815260200160002060008473ffffffffffffffffffffffffffffffffffffffff1673ffffffffffffffffffffffffffffffffffffffff16815260200190815260200160002060006101000a81548160ff0219169083151502179055508173ffffffffffffffffffffffffffffffffffffffff168373ffffffffffffffffffffffffffffffffffffffff167f17307eab39ab6107e8899845ad3d59bd9653f200f220920489ca2b5937696c318360405161135591906125cb565b60405180910390a3505050565b61136d848484610f99565b61137984848484611700565b6113b8576040517f08c379a00000000000000000000000000000000000000000000000000000000081526004016113af90612628565b60405180910390fd5b50505050565b606060405180602001604052806000815250905090565b6060600082141561141d576040518060400160405280600181526020017f3000000000000000000000000000000000000000000000000000000000000000815250905061157d565b600082905060005b6000821461144f57808061143890612a2a565b915050600a8261144891906128dd565b9150611425565b60008167ffffffffffffffff811115611491577f4e487b7100000000000000000000000000000000000000000000000000000000600052604160045260246000fd5b6040519080825280601f01601f1916602001820160405280156114c35781602001600182028036833780820191505090505b5090505b60008514611576576001826114dc919061290e565b9150600a856114eb9190612a73565b60306114f79190612887565b60f81b818381518110611533577f4e487b7100000000000000000000000000000000000000000000000000000000600052603260045260246000fd5b60200101907effffffffffffffffffffffffffffffffffffffffffffffffffffffffffffff1916908160001a905350600a8561156f91906128dd565b94506114c7565b8093505050505b919050565b60007f01ffc9a7000000000000000000000000000000000000000000000000000000007bffffffffffffffffffffffffffffffffffffffffffffffffffffffff1916827bffffffffffffffffffffffffffffffffffffffffffffffffffffffff1916149050919050565b6115f7838383610ca7565b600073ffffffffffffffffffffffffffffffffffffffff168373ffffffffffffffffffffffffffffffffffffffff16141561163a5761163581611897565b611679565b8173ffffffffffffffffffffffffffffffffffffffff168373ffffffffffffffffffffffffffffffffffffffff16146116785761167783826118e0565b5b5b600073ffffffffffffffffffffffffffffffffffffffff168273ffffffffffffffffffffffffffffffffffffffff1614156116bc576116b781611a4d565b6116fb565b8273ffffffffffffffffffffffffffffffffffffffff168273ffffffffffffffffffffffffffffffffffffffff16146116fa576116f98282611b90565b5b5b505050565b60006117218473ffffffffffffffffffffffffffffffffffffffff16610c94565b1561188a578373ffffffffffffffffffffffffffffffffffffffff1663150b7a0261174a610dfa565b8786866040518563ffffffff1660e01b815260040161176c949392919061257f565b602060405180830381600087803b15801561178657600080fd5b505af19250505080156117b757506040513d601f19601f820116820180604052508101906117b49190611eb0565b60015b61183a573d80600081146117e7576040519150601f19603f3d011682016040523d82523d6000602084013e6117ec565b606091505b50600081511415611832576040517f08c379a000000000000000000000000000000000000000000000000000000000815260040161182990612628565b60405180910390fd5b805181602001fd5b63150b7a0260e01b7bffffffffffffffffffffffffffffffffffffffffffffffffffffffff1916817bffffffffffffffffffffffffffffffffffffffffffffffffffffffff19161491505061188f565b600190505b949350505050565b6008805490506009600083815260200190815260200160002081905550600881908060018154018082558091505060019003906000526020600020016000909190919091505550565b600060016118ed84610941565b6118f7919061290e565b90506000600760008481526020019081526020016000205490508181146119dc576000600660008673ffffffffffffffffffffffffffffffffffffffff1673ffffffffffffffffffffffffffffffffffffffff168152602001908152602001600020600084815260200190815260200160002054905080600660008773ffffffffffffffffffffffffffffffffffffffff1673ffffffffffffffffffffffffffffffffffffffff168152602001908152602001600020600084815260200190815260200160002081905550816007600083815260200190815260200160002081905550505b6007600084815260200190815260200160002060009055600660008573ffffffffffffffffffffffffffffffffffffffff1673ffffffffffffffffffffffffffffffffffffffff16815260200190815260200160002060008381526020019081526020016000206000905550505050565b60006001600880549050611a61919061290e565b9050600060096000848152602001908152602001600020549050600060088381548110611ab7577f4e487b7100000000000000000000000000000000000000000000000000000000600052603260045260246000fd5b906000526020600020015490508060088381548110611aff577f4e487b7100000000000000000000000000000000000000000000000000000000600052603260045260246000fd5b906000526020600020018190555081600960008381526020019081526020016000208190555060096000858152602001908152602001600020600090556008805480611b74577f4e487b7100000000000000000000000000000000000000000000000000000000600052603160045260246000fd5b6001900381819060005260206000200160009055905550505050565b6000611b9b83610941565b905081600660008573ffffffffffffffffffffffffffffffffffffffff1673ffffffffffffffffffffffffffffffffffffffff168152602001908152602001600020600083815260200190815260200160002081905550806007600084815260200190815260200160002081905550505050565b6000611c22611c1d84612814565b6127e3565b905082815260208101848484011115611c3a57600080fd5b611c458482856129b6565b509392505050565b600081359050611c5c81612b71565b92915050565b600081359050611c7181612b88565b92915050565b600081359050611c8681612b9f565b92915050565b600081519050611c9b81612b9f565b92915050565b600082601f830112611cb257600080fd5b8135611cc2848260208601611c0f565b91505092915050565b600081359050611cda81612bb6565b92915050565b600060208284031215611cf257600080fd5b6000611d0084828501611c4d565b91505092915050565b60008060408385031215611d1c57600080fd5b6000611d2a85828601611c4d565b9250506020611d3b85828601611c4d565b9150509250929050565b600080600060608486031215611d5a57600080fd5b6000611d6886828701611c4d565b9350506020611d7986828701611c4d565b9250506040611d8a86828701611ccb565b9150509250925092565b60008060008060808587031215611daa57600080fd5b6000611db887828801611c4d565b9450506020611dc987828801611c4d565b9350506040611dda87828801611ccb565b925050606085013567ffffffffffffffff811115611df757600080fd5b611e0387828801611ca1565b91505092959194509250565b60008060408385031215611e2257600080fd5b6000611e3085828601611c4d565b9250506020611e4185828601611c62565b9150509250929050565b60008060408385031215611e5e57600080fd5b6000611e6c85828601611c4d565b9250506020611e7d85828601611ccb565b9150509250929050565b600060208284031215611e9957600080fd5b6000611ea784828501611c77565b91505092915050565b600060208284031215611ec257600080fd5b6000611ed084828501611c8c565b91505092915050565b600060208284031215611eeb57600080fd5b6000611ef984828501611ccb565b91505092915050565b611f0b81612942565b82525050565b611f1a81612954565b82525050565b6000611f2b82612844565b611f35818561285a565b9350611f458185602086016129c5565b611f4e81612b60565b840191505092915050565b6000611f648261284f565b611f6e818561286b565b9350611f7e8185602086016129c5565b611f8781612b60565b840191505092915050565b6000611f9d8261284f565b611fa7818561287c565b9350611fb78185602086016129c5565b80840191505092915050565b6000611fd0602b8361286b565b91507f455243373231456e756d657261626c653a206f776e657220696e646578206f7560008301527f74206f6620626f756e64730000000000000000000000000000000000000000006020830152604082019050919050565b600061203660328361286b565b91507f4552433732313a207472616e7366657220746f206e6f6e20455243373231526560008301527f63656976657220696d706c656d656e74657200000000000000000000000000006020830152604082019050919050565b600061209c60248361286b565b91507f4552433732313a207472616e7366657220746f20746865207a65726f2061646460008301527f72657373000000000000000000000000000000000000000000000000000000006020830152604082019050919050565b600061210260198361286b565b91507f4552433732313a20617070726f766520746f2063616c6c6572000000000000006000830152602082019050919050565b6000612142602c8361286b565b91507f4552433732313a206f70657261746f7220717565727920666f72206e6f6e657860008301527f697374656e7420746f6b656e00000000000000000000000000000000000000006020830152604082019050919050565b60006121a860388361286b565b91507f4552433732313a20617070726f76652063616c6c6572206973206e6f74206f7760008301527f6e6572206e6f7220617070726f76656420666f7220616c6c00000000000000006020830152604082019050919050565b600061220e602a8361286b565b91507f4552433732313a2062616c616e636520717565727920666f7220746865207a6560008301527f726f2061646472657373000000000000000000000000000000000000000000006020830152604082019050919050565b600061227460298361286b565b91507f4552433732313a206f776e657220717565727920666f72206e6f6e657869737460008301527f656e7420746f6b656e00000000000000000000000000000000000000000000006020830152604082019050919050565b60006122da602c8361286b565b91507f4552433732313a20617070726f76656420717565727920666f72206e6f6e657860008301527f697374656e7420746f6b656e00000000000000000000000000000000000000006020830152604082019050919050565b600061234060298361286b565b91507f4552433732313a207472616e73666572206f6620746f6b656e2074686174206960008301527f73206e6f74206f776e00000000000000000000000000000000000000000000006020830152604082019050919050565b60006123a6602f8361286b565b91507f4552433732314d657461646174613a2055524920717565727920666f72206e6f60008301527f6e6578697374656e7420746f6b656e00000000000000000000000000000000006020830152604082019050919050565b600061240c60218361286b565b91507f4552433732313a20617070726f76616c20746f2063757272656e74206f776e6560008301527f72000000000000000000000000000000000000000000000000000000000000006020830152604082019050919050565b600061247260318361286b565b91507f4552433732313a207472616e736665722063616c6c6572206973206e6f74206f60008301527f776e6572206e6f7220617070726f7665640000000000000000000000000000006020830152604082019050919050565b60006124d8602c8361286b565b91507f455243373231456e756d657261626c653a20676c6f62616c20696e646578206f60008301527f7574206f6620626f756e647300000000000000000000000000000000000000006020830152604082019050919050565b61253a816129ac565b82525050565b600061254c8285611f92565b91506125588284611f92565b91508190509392505050565b60006020820190506125796000830184611f02565b92915050565b60006080820190506125946000830187611f02565b6125a16020830186611f02565b6125ae6040830185612531565b81810360608301526125c08184611f20565b905095945050505050565b60006020820190506125e06000830184611f11565b92915050565b600060208201905081810360008301526126008184611f59565b905092915050565b6000602082019050818103600083015261262181611fc3565b9050919050565b6000602082019050818103600083015261264181612029565b9050919050565b600060208201905081810360008301526126618161208f565b9050919050565b60006020820190508181036000830152612681816120f5565b9050919050565b600060208201905081810360008301526126a181612135565b9050919050565b600060208201905081810360008301526126c18161219b565b9050919050565b600060208201905081810360008301526126e181612201565b9050919050565b6000602082019050818103600083015261270181612267565b9050919050565b60006020820190508181036000830152612721816122cd565b9050919050565b6000602082019050818103600083015261274181612333565b9050919050565b6000602082019050818103600083015261276181612399565b9050919050565b60006020820190508181036000830152612781816123ff565b9050919050565b600060208201905081810360008301526127a181612465565b9050919050565b600060208201905081810360008301526127c1816124cb565b9050919050565b60006020820190506127dd6000830184612531565b92915050565b6000604051905081810181811067ffffffffffffffff8211171561280a57612809612b31565b5b8060405250919050565b600067ffffffffffffffff82111561282f5761282e612b31565b5b601f19601f8301169050602081019050919050565b600081519050919050565b600081519050919050565b600082825260208201905092915050565b600082825260208201905092915050565b600081905092915050565b6000612892826129ac565b915061289d836129ac565b9250827fffffffffffffffffffffffffffffffffffffffffffffffffffffffffffffffff038211156128d2576128d1612aa4565b5b828201905092915050565b60006128e8826129ac565b91506128f3836129ac565b92508261290357612902612ad3565b5b828204905092915050565b6000612919826129ac565b9150612924836129ac565b92508282101561293757612936612aa4565b5b828203905092915050565b600061294d8261298c565b9050919050565b60008115159050919050565b60007fffffffff0000000000000000000000000000000000000000000000000000000082169050919050565b600073ffffffffffffffffffffffffffffffffffffffff82169050919050565b6000819050919050565b82818337600083830152505050565b60005b838110156129e35780820151818401526020810190506129c8565b838111156129f2576000848401525b50505050565b60006002820490506001821680612a1057607f821691505b60208210811415612a2457612a23612b02565b5b50919050565b6000612a35826129ac565b91507fffffffffffffffffffffffffffffffffffffffffffffffffffffffffffffffff821415612a6857612a67612aa4565b5b600182019050919050565b6000612a7e826129ac565b9150612a89836129ac565b925082612a9957612a98612ad3565b5b828206905092915050565b7f4e487b7100000000000000000000000000000000000000000000000000000000600052601160045260246000fd5b7f4e487b7100000000000000000000000000000000000000000000000000000000600052601260045260246000fd5b7f4e487b7100000000000000000000000000000000000000000000000000000000600052602260045260246000fd5b7f4e487b7100000000000000000000000000000000000000000000000000000000600052604160045260246000fd5b6000601f19601f8301169050919050565b612b7a81612942565b8114612b8557600080fd5b50565b612b9181612954565b8114612b9c57600080fd5b50565b612ba881612960565b8114612bb357600080fd5b50565b612bbf816129ac565b8114612bca57600080fd5b5056fea2646970667358221220e6012bb1a952f3db21cd54b8392446863d0139da5197712d2208f3b4e8328b0f64736f6c63430008000033",
  "linkReferences": {},
  "deployedLinkReferences": {}
}